{
  "_format": "hh-sol-artifact-1",
  "contractName": "MacDeeContract",
  "sourceName": "contracts/MacDee.sol",
  "abi": [
    {
      "inputs": [
        {
          "internalType": "uint256",
          "name": "amountMeal",
          "type": "uint256"
        },
        {
          "internalType": "uint256",
          "name": "profitmargin",
          "type": "uint256"
        }
      ],
      "stateMutability": "nonpayable",
      "type": "constructor"
    },
    {
      "anonymous": false,
      "inputs": [
        {
          "indexed": true,
          "internalType": "address",
          "name": "owner",
          "type": "address"
        },
        {
          "indexed": false,
          "internalType": "uint256",
          "name": "time",
          "type": "uint256"
        }
      ],
      "name": "workerClockInEvent",
      "type": "event"
    },
    {
      "inputs": [
        {
          "internalType": "address",
          "name": "supplier",
          "type": "address"
        },
        {
          "internalType": "uint256",
          "name": "amount",
          "type": "uint256"
        }
      ],
      "name": "addSupplier",
      "outputs": [
        {
          "internalType": "bool",
          "name": "",
          "type": "bool"
        }
      ],
      "stateMutability": "nonpayable",
      "type": "function"
    },
    {
      "inputs": [],
      "name": "companyBalance",
      "outputs": [
        {
          "internalType": "uint256",
          "name": "",
          "type": "uint256"
        }
      ],
      "stateMutability": "view",
      "type": "function"
    },
    {
      "inputs": [],
      "name": "donate",
      "outputs": [],
      "stateMutability": "payable",
      "type": "function"
    },
    {
      "inputs": [],
      "name": "getBalance",
      "outputs": [
        {
          "internalType": "uint256",
          "name": "",
          "type": "uint256"
        }
      ],
      "stateMutability": "view",
      "type": "function"
    },
    {
      "inputs": [],
      "name": "getOwner",
      "outputs": [
        {
          "internalType": "address",
          "name": "",
          "type": "address"
        }
      ],
      "stateMutability": "view",
      "type": "function"
    },
    {
      "inputs": [],
      "name": "getSupplierBalance",
      "outputs": [
        {
          "internalType": "uint256",
          "name": "",
          "type": "uint256"
        }
      ],
      "stateMutability": "view",
      "type": "function"
    },
    {
      "inputs": [],
      "name": "mealPrice",
      "outputs": [
        {
          "internalType": "uint256",
          "name": "",
          "type": "uint256"
        }
      ],
      "stateMutability": "view",
      "type": "function"
    },
    {
      "inputs": [],
      "name": "payForMeal",
      "outputs": [],
      "stateMutability": "payable",
      "type": "function"
    },
    {
      "inputs": [
        {
          "internalType": "address",
          "name": "supplier",
          "type": "address"
        }
      ],
      "name": "removeSupplier",
      "outputs": [
        {
          "internalType": "int256",
          "name": "",
          "type": "int256"
        }
      ],
      "stateMutability": "nonpayable",
      "type": "function"
    },
    {
      "inputs": [
        {
          "internalType": "uint256",
          "name": "amount",
          "type": "uint256"
        }
      ],
      "name": "setCompanyMargin",
      "outputs": [
        {
          "internalType": "uint256",
          "name": "",
          "type": "uint256"
        }
      ],
      "stateMutability": "nonpayable",
      "type": "function"
    },
    {
      "inputs": [
        {
          "internalType": "uint256",
          "name": "amount",
          "type": "uint256"
        }
      ],
      "name": "setMealPrice",
      "outputs": [
        {
          "internalType": "uint256",
          "name": "",
          "type": "uint256"
        }
      ],
      "stateMutability": "nonpayable",
      "type": "function"
    },
    {
      "inputs": [],
      "name": "supplierWithdrawAll",
      "outputs": [
        {
          "internalType": "int256",
          "name": "",
          "type": "int256"
        }
      ],
      "stateMutability": "nonpayable",
      "type": "function"
    },
    {
      "inputs": [],
      "name": "totalPayment",
      "outputs": [
        {
          "internalType": "uint256",
          "name": "",
          "type": "uint256"
        }
      ],
      "stateMutability": "view",
      "type": "function"
    },
    {
      "inputs": [],
      "name": "totalSuppliers",
      "outputs": [
        {
          "internalType": "uint256",
          "name": "",
          "type": "uint256"
        }
      ],
      "stateMutability": "view",
      "type": "function"
    },
    {
      "inputs": [],
      "name": "totalSuppliersPayment",
      "outputs": [
        {
          "internalType": "uint256",
          "name": "",
          "type": "uint256"
        }
      ],
      "stateMutability": "view",
      "type": "function"
    },
    {
      "inputs": [],
      "name": "withdrawCompanyFunds",
      "outputs": [],
      "stateMutability": "nonpayable",
      "type": "function"
    },
    {
      "inputs": [],
      "name": "workerClockIn",
      "outputs": [],
      "stateMutability": "nonpayable",
      "type": "function"
    },
    {
      "inputs": [],
      "name": "workerClockOut",
      "outputs": [],
      "stateMutability": "nonpayable",
      "type": "function"
    },
    {
      "inputs": [],
      "name": "workerWithdralAll",
      "outputs": [
        {
          "internalType": "int256",
          "name": "",
          "type": "int256"
        }
      ],
      "stateMutability": "nonpayable",
      "type": "function"
    }
  ],
  "bytecode": "0x608060405260006002556000600355600060045560006005556305f5e10060065560006007553480156200003257600080fd5b506040516200220c3803806200220c8339818101604052810190620000589190620000ee565b336000806101000a81548173ffffffffffffffffffffffffffffffffffffffff021916908373ffffffffffffffffffffffffffffffffffffffff1602179055508160058190555080600681905550505062000135565b600080fd5b6000819050919050565b620000c881620000b3565b8114620000d457600080fd5b50565b600081519050620000e881620000bd565b92915050565b60008060408385031215620001085762000107620000ae565b5b60006200011885828601620000d7565b92505060206200012b85828601620000d7565b9150509250929050565b6120c780620001456000396000f3fe6080604052600436106101145760003560e01c80636600f328116100a0578063e4d57dfd11610064578063e4d57dfd14610393578063eb8db74e146103aa578063ed88c68e146103d5578063f75e81fe146103df578063f7c2e8151461040a57610114565b80636600f328146102e4578063893d20e8146102fb578063964a6afe14610326578063a720d24d14610351578063b5b560981461037c57610114565b806320ea6189116100e757806320ea6189146101d75780632f121ada14610214578063552a21881461023f57806358eeabbc1461027c5780635a5b2d36146102a757610114565b80630e86287d146101195780630f5f817a1461014457806312065fe0146101815780631886d55b146101ac575b600080fd5b34801561012557600080fd5b5061012e610414565b60405161013b919061170a565b60405180910390f35b34801561015057600080fd5b5061016b60048036038101906101669190611788565b610581565b604051610178919061170a565b60405180910390f35b34801561018d57600080fd5b506101966107f2565b6040516101a391906117ce565b60405180910390f35b3480156101b857600080fd5b506101c16107fc565b6040516101ce91906117ce565b60405180910390f35b3480156101e357600080fd5b506101fe60048036038101906101f99190611815565b610802565b60405161020b9190611870565b60405180910390f35b34801561022057600080fd5b50610229610a80565b60405161023691906117ce565b60405180910390f35b34801561024b57600080fd5b506102666004803603810190610261919061188b565b610a86565b60405161027391906117ce565b60405180910390f35b34801561028857600080fd5b50610291610b6b565b60405161029e91906117ce565b60405180910390f35b3480156102b357600080fd5b506102ce60048036038101906102c9919061188b565b610b71565b6040516102db91906117ce565b60405180910390f35b3480156102f057600080fd5b506102f9610c56565b005b34801561030757600080fd5b50610310610e5b565b60405161031d91906118c7565b60405180910390f35b34801561033257600080fd5b5061033b610e84565b60405161034891906117ce565b60405180910390f35b34801561035d57600080fd5b50610366610fb4565b60405161037391906117ce565b60405180910390f35b34801561038857600080fd5b50610391610fba565b005b34801561039f57600080fd5b506103a86110e3565b005b3480156103b657600080fd5b506103bf611340565b6040516103cc919061170a565b60405180910390f35b6103dd611505565b005b3480156103eb57600080fd5b506103f46115d5565b60405161040191906117ce565b60405180910390f35b6104126115db565b005b6000600c60003373ffffffffffffffffffffffffffffffffffffffff1673ffffffffffffffffffffffffffffffffffffffff16815260200190815260200160002060009054906101000a900460ff166104a2576040517f08c379a00000000000000000000000000000000000000000000000000000000081526004016104999061193f565b60405180910390fd5b6000600d60003373ffffffffffffffffffffffffffffffffffffffff1673ffffffffffffffffffffffffffffffffffffffff16815260200190815260200160002054905060008111610529576040517f08c379a0000000000000000000000000000000000000000000000000000000008152600401610520906119ab565b60405180910390fd5b6000600d60003373ffffffffffffffffffffffffffffffffffffffff1673ffffffffffffffffffffffffffffffffffffffff168152602001908152602001600020819055506105783382611639565b50600191505090565b60008060009054906101000a900473ffffffffffffffffffffffffffffffffffffffff1673ffffffffffffffffffffffffffffffffffffffff163373ffffffffffffffffffffffffffffffffffffffff1614610612576040517f08c379a000000000000000000000000000000000000000000000000000000000815260040161060990611a17565b60405180910390fd5b600960008373ffffffffffffffffffffffffffffffffffffffff1673ffffffffffffffffffffffffffffffffffffffff16815260200190815260200160002060009054906101000a900460ff1661069e576040517f08c379a000000000000000000000000000000000000000000000000000000000815260040161069590611a83565b60405180910390fd5b600854600a60008473ffffffffffffffffffffffffffffffffffffffff1673ffffffffffffffffffffffffffffffffffffffff1681526020019081526020016000205414610721576040517f08c379a000000000000000000000000000000000000000000000000000000000815260040161071890611b15565b60405180910390fd5b6000600960008473ffffffffffffffffffffffffffffffffffffffff1673ffffffffffffffffffffffffffffffffffffffff16815260200190815260200160002060006101000a81548160ff0219169083151502179055506002600081548092919061078c90611b64565b9190505550600b60008373ffffffffffffffffffffffffffffffffffffffff1673ffffffffffffffffffffffffffffffffffffffff16815260200190815260200160002054600360008282546107e29190611b8d565b9250508190555060019050919050565b6000600154905090565b60055481565b60008060009054906101000a900473ffffffffffffffffffffffffffffffffffffffff1673ffffffffffffffffffffffffffffffffffffffff163373ffffffffffffffffffffffffffffffffffffffff1614610893576040517f08c379a000000000000000000000000000000000000000000000000000000000815260040161088a90611a17565b60405180910390fd5b600082116108d6576040517f08c379a00000000000000000000000000000000000000000000000000000000081526004016108cd90611c0d565b60405180910390fd5b600960008473ffffffffffffffffffffffffffffffffffffffff1673ffffffffffffffffffffffffffffffffffffffff16815260200190815260200160002060009054906101000a900460ff1615610963576040517f08c379a000000000000000000000000000000000000000000000000000000000815260040161095a90611c79565b60405180910390fd5b6002600081548092919061097690611c99565b9190505550816003600082825461098d9190611ce1565b925050819055506001600960008573ffffffffffffffffffffffffffffffffffffffff1673ffffffffffffffffffffffffffffffffffffffff16815260200190815260200160002060006101000a81548160ff021916908315150217905550600854600a60008573ffffffffffffffffffffffffffffffffffffffff1673ffffffffffffffffffffffffffffffffffffffff1681526020019081526020016000208190555081600b60008573ffffffffffffffffffffffffffffffffffffffff1673ffffffffffffffffffffffffffffffffffffffff168152602001908152602001600020819055506001905092915050565b60015481565b60008060009054906101000a900473ffffffffffffffffffffffffffffffffffffffff1673ffffffffffffffffffffffffffffffffffffffff163373ffffffffffffffffffffffffffffffffffffffff1614610b17576040517f08c379a0000000000000000000000000000000000000000000000000000000008152600401610b0e90611a17565b60405180910390fd5b60008211610b5a576040517f08c379a0000000000000000000000000000000000000000000000000000000008152600401610b5190611d61565b60405180910390fd5b816005819055506005549050919050565b60045481565b60008060009054906101000a900473ffffffffffffffffffffffffffffffffffffffff1673ffffffffffffffffffffffffffffffffffffffff163373ffffffffffffffffffffffffffffffffffffffff1614610c02576040517f08c379a0000000000000000000000000000000000000000000000000000000008152600401610bf990611a17565b60405180910390fd5b60008211610c45576040517f08c379a0000000000000000000000000000000000000000000000000000000008152600401610c3c90611d61565b60405180910390fd5b816006819055506006549050919050565b600c60003373ffffffffffffffffffffffffffffffffffffffff1673ffffffffffffffffffffffffffffffffffffffff16815260200190815260200160002060009054906101000a900460ff16610ce2576040517f08c379a0000000000000000000000000000000000000000000000000000000008152600401610cd99061193f565b60405180910390fd5b600f60003373ffffffffffffffffffffffffffffffffffffffff1673ffffffffffffffffffffffffffffffffffffffff16815260200190815260200160002060009054906101000a900460ff1615610d6f576040517f08c379a0000000000000000000000000000000000000000000000000000000008152600401610d6690611dcd565b60405180910390fd5b42601060003373ffffffffffffffffffffffffffffffffffffffff1673ffffffffffffffffffffffffffffffffffffffff168152602001908152602001600020819055506001600f60003373ffffffffffffffffffffffffffffffffffffffff1673ffffffffffffffffffffffffffffffffffffffff16815260200190815260200160002060006101000a81548160ff0219169083151502179055503373ffffffffffffffffffffffffffffffffffffffff167fb55e76d7ed55de82c6fda45a8e758c69d90abdac6cf8567b094ea819611406e742604051610e5191906117ce565b60405180910390a2565b60008060009054906101000a900473ffffffffffffffffffffffffffffffffffffffff16905090565b6000600960003373ffffffffffffffffffffffffffffffffffffffff1673ffffffffffffffffffffffffffffffffffffffff16815260200190815260200160002060009054906101000a900460ff16610f12576040517f08c379a0000000000000000000000000000000000000000000000000000000008152600401610f0990611e39565b60405180910390fd5b6000600b60003373ffffffffffffffffffffffffffffffffffffffff1673ffffffffffffffffffffffffffffffffffffffff16815260200190815260200160002054600a60003373ffffffffffffffffffffffffffffffffffffffff1673ffffffffffffffffffffffffffffffffffffffff16815260200190815260200160002054600854610fa19190611b8d565b610fab9190611e59565b90508091505090565b60025481565b60008054906101000a900473ffffffffffffffffffffffffffffffffffffffff1673ffffffffffffffffffffffffffffffffffffffff163373ffffffffffffffffffffffffffffffffffffffff1614611048576040517f08c379a000000000000000000000000000000000000000000000000000000000815260040161103f90611a17565b60405180910390fd5b600060065460075460085461105d9190611b8d565b6110679190611e59565b9050600081116110ac576040517f08c379a00000000000000000000000000000000000000000000000000000000081526004016110a3906119ab565b60405180910390fd5b6008546007819055506110df60008054906101000a900473ffffffffffffffffffffffffffffffffffffffff1682611639565b5050565b600c60003373ffffffffffffffffffffffffffffffffffffffff1673ffffffffffffffffffffffffffffffffffffffff16815260200190815260200160002060009054906101000a900460ff1661116f576040517f08c379a00000000000000000000000000000000000000000000000000000000081526004016111669061193f565b60405180910390fd5b600f60003373ffffffffffffffffffffffffffffffffffffffff1673ffffffffffffffffffffffffffffffffffffffff16815260200190815260200160002060009054906101000a900460ff166111fb576040517f08c379a00000000000000000000000000000000000000000000000000000000081526004016111f290611ee7565b60405180910390fd5b6000600f60003373ffffffffffffffffffffffffffffffffffffffff1673ffffffffffffffffffffffffffffffffffffffff16815260200190815260200160002060006101000a81548160ff0219169083151502179055506000601060003373ffffffffffffffffffffffffffffffffffffffff1673ffffffffffffffffffffffffffffffffffffffff16815260200190815260200160002054426112a09190611b8d565b905080600d60003373ffffffffffffffffffffffffffffffffffffffff1673ffffffffffffffffffffffffffffffffffffffff16815260200190815260200160002060008282546112f19190611ce1565b925050819055506000601060003373ffffffffffffffffffffffffffffffffffffffff1673ffffffffffffffffffffffffffffffffffffffff1681526020019081526020016000208190555050565b6000600960003373ffffffffffffffffffffffffffffffffffffffff1673ffffffffffffffffffffffffffffffffffffffff16815260200190815260200160002060009054906101000a900460ff166113ce576040517f08c379a00000000000000000000000000000000000000000000000000000000081526004016113c590611e39565b60405180910390fd5b6000600b60003373ffffffffffffffffffffffffffffffffffffffff1673ffffffffffffffffffffffffffffffffffffffff16815260200190815260200160002054600a60003373ffffffffffffffffffffffffffffffffffffffff1673ffffffffffffffffffffffffffffffffffffffff1681526020019081526020016000205460085461145d9190611b8d565b6114679190611e59565b9050600081116114ac576040517f08c379a00000000000000000000000000000000000000000000000000000000081526004016114a3906119ab565b60405180910390fd5b600854600a60003373ffffffffffffffffffffffffffffffffffffffff1673ffffffffffffffffffffffffffffffffffffffff168152602001908152602001600020819055506114fc3382611639565b50600191505090565b60008060009054906101000a900473ffffffffffffffffffffffffffffffffffffffff1673ffffffffffffffffffffffffffffffffffffffff163460405161154c90611f38565b60006040518083038185875af1925050503d8060008114611589576040519150601f19603f3d011682016040523d82523d6000602084013e61158e565b606091505b50509050806115d2576040517f08c379a00000000000000000000000000000000000000000000000000000000081526004016115c990611f99565b60405180910390fd5b50565b60035481565b600554341461161f576040517f08c379a000000000000000000000000000000000000000000000000000000000815260040161161690612005565b60405180910390fd5b6008600081548092919061163290611c99565b9190505550565b6000808373ffffffffffffffffffffffffffffffffffffffff168360405161166090611f38565b60006040518083038185875af1925050503d806000811461169d576040519150601f19603f3d011682016040523d82523d6000602084013e6116a2565b606091505b50509050806116e6576040517f08c379a00000000000000000000000000000000000000000000000000000000081526004016116dd90612071565b60405180910390fd5b600191505092915050565b6000819050919050565b611704816116f1565b82525050565b600060208201905061171f60008301846116fb565b92915050565b600080fd5b600073ffffffffffffffffffffffffffffffffffffffff82169050919050565b60006117558261172a565b9050919050565b6117658161174a565b811461177057600080fd5b50565b6000813590506117828161175c565b92915050565b60006020828403121561179e5761179d611725565b5b60006117ac84828501611773565b91505092915050565b6000819050919050565b6117c8816117b5565b82525050565b60006020820190506117e360008301846117bf565b92915050565b6117f2816117b5565b81146117fd57600080fd5b50565b60008135905061180f816117e9565b92915050565b6000806040838503121561182c5761182b611725565b5b600061183a85828601611773565b925050602061184b85828601611800565b9150509250929050565b60008115159050919050565b61186a81611855565b82525050565b60006020820190506118856000830184611861565b92915050565b6000602082840312156118a1576118a0611725565b5b60006118af84828501611800565b91505092915050565b6118c18161174a565b82525050565b60006020820190506118dc60008301846118b8565b92915050565b600082825260208201905092915050565b7f576f726b657273206f6e6c790000000000000000000000000000000000000000600082015250565b6000611929600c836118e2565b9150611934826118f3565b602082019050919050565b600060208201905081810360008301526119588161191c565b9050919050565b7f4e6f7468696e6720746f20776974686472617700000000000000000000000000600082015250565b60006119956013836118e2565b91506119a08261195f565b602082019050919050565b600060208201905081810360008301526119c481611988565b9050919050565b7f4f776e6572207265736572766564206f6e6c7900000000000000000000000000600082015250565b6000611a016013836118e2565b9150611a0c826119cb565b602082019050919050565b60006020820190508181036000830152611a30816119f4565b9050919050565b7f5265636f726420646f65736e7420657869737400000000000000000000000000600082015250565b6000611a6d6013836118e2565b9150611a7882611a37565b602082019050919050565b60006020820190508181036000830152611a9c81611a60565b9050919050565b7f54686520737570706c696572207374696c6c20686173206d6f6e657920696e2060008201527f74686520636f6e74726163740000000000000000000000000000000000000000602082015250565b6000611aff602c836118e2565b9150611b0a82611aa3565b604082019050919050565b60006020820190508181036000830152611b2e81611af2565b9050919050565b7f4e487b7100000000000000000000000000000000000000000000000000000000600052601160045260246000fd5b6000611b6f826117b5565b915060008203611b8257611b81611b35565b5b600182039050919050565b6000611b98826117b5565b9150611ba3836117b5565b9250828203905081811115611bbb57611bba611b35565b5b92915050565b7f416d6f756e742063616e6e6f74206265207a65726f2100000000000000000000600082015250565b6000611bf76016836118e2565b9150611c0282611bc1565b602082019050919050565b60006020820190508181036000830152611c2681611bea565b9050919050565b7f5265636f726420616c7265616479206578697374696e67210000000000000000600082015250565b6000611c636018836118e2565b9150611c6e82611c2d565b602082019050919050565b60006020820190508181036000830152611c9281611c56565b9050919050565b6000611ca4826117b5565b91507fffffffffffffffffffffffffffffffffffffffffffffffffffffffffffffffff8203611cd657611cd5611b35565b5b600182019050919050565b6000611cec826117b5565b9150611cf7836117b5565b9250828201905080821115611d0f57611d0e611b35565b5b92915050565b7f616d6f756e742068617320746f2062652061626f766520300000000000000000600082015250565b6000611d4b6018836118e2565b9150611d5682611d15565b602082019050919050565b60006020820190508181036000830152611d7a81611d3e565b9050919050565b7f416c726561647920776f726b696e670000000000000000000000000000000000600082015250565b6000611db7600f836118e2565b9150611dc282611d81565b602082019050919050565b60006020820190508181036000830152611de681611daa565b9050919050565b7f537570706c696572206f6e6c7900000000000000000000000000000000000000600082015250565b6000611e23600d836118e2565b9150611e2e82611ded565b602082019050919050565b60006020820190508181036000830152611e5281611e16565b9050919050565b6000611e64826117b5565b9150611e6f836117b5565b9250828202611e7d816117b5565b91508282048414831517611e9457611e93611b35565b5b5092915050565b7f4e6f7420776f726b696e67000000000000000000000000000000000000000000600082015250565b6000611ed1600b836118e2565b9150611edc82611e9b565b602082019050919050565b60006020820190508181036000830152611f0081611ec4565b9050919050565b600081905092915050565b50565b6000611f22600083611f07565b9150611f2d82611f12565b600082019050919050565b6000611f4382611f15565b9150819050919050565b7f4661696c656420746f2073656e64206d6f6e6579000000000000000000000000600082015250565b6000611f836014836118e2565b9150611f8e82611f4d565b602082019050919050565b60006020820190508181036000830152611fb281611f76565b9050919050565b7f506179696e6720746f6f206d756368206f7220746f6f206c6974746c65000000600082015250565b6000611fef601d836118e2565b9150611ffa82611fb9565b602082019050919050565b6000602082019050818103600083015261201e81611fe2565b9050919050565b7f5061796d656e74206661696c6564000000000000000000000000000000000000600082015250565b600061205b600e836118e2565b915061206682612025565b602082019050919050565b6000602082019050818103600083015261208a8161204e565b905091905056fea2646970667358221220cffb4d5e6bdde408dac46389c940c39b38d3c3a862f92f6446373b30acd466b064736f6c63430008110033",
  "linkReferences": {},
  "deployedLinkReferences": {}
}